:100000000C945D000C9485000C9485000C94850084
:100010000C9485000C9485000C9485000C9485004C
:100020000C9485000C9485000C9485000C9485003C
:100030000C9485000C9485000C9485000C9485002C
:100040000C940C040C9485000C94DA030C94B40307
:100050000C9485000C9485000C9485000C9485000C
:100060000C9485000C94850000000008000201003B
:100070000003040700000000000000000000000072
:10008000250028002B0000000000240027002A0083
:10009000040404040404040402020202020203032E
:1000A0000303030301020408102040800102040836
:1000B0001020010204081020560411241FBECFEFA7
:1000C000D8E0DEBFCDBF12E0A0E0B1E0EAE6FCE0A0
:1000D00002C005900D92A030B107D9F722E0A0E050
:1000E000B2E001C01D92AC3CB207E1F710E0CDE5F3
:1000F000D0E004C02197FE010E942806CC35D1072C
:10010000C9F70E94A1040C9433060C94000090E0FF
:10011000FC01EC55FF4F2491FC01E057FF4F849107
:10012000882399F090E0880F991FFC01EA57FF4F50
:10013000A591B491FC01E458FF4F859194918FB73C
:10014000F894EC91E22BEC938FBF0895CF92DF925D
:10015000EF92FF920F931F93CF93DF936C017A017D
:100160008B01C0E0D0E0CE15DF0589F0D8016D919C
:100170008D01D601ED91FC910190F081E02DC60139
:100180000995892B11F47E0102C02196ECCFC7019D
:10019000DF91CF911F910F91FF90EF90DF90CF9063
:1001A0000895FC01918D828D981761F0828DDF0199
:1001B000A80FB11D5D968C91928D9F5F9F73928F5A
:1001C00090E008958FEF9FEF0895FC01918D828D4F
:1001D000981731F0828DE80FF11D858D90E008951C
:1001E0008FEF9FEF0895FC01918D228D892F90E074
:1001F000805C9F4F821B91098F739927089587E137
:1002000092E00E94F30021E0892B09F420E0822F84
:100210000895FC01848DDF01A80FB11DA35ABF4FC3
:100220002C91848D90E001968F739927848FA689F5
:10023000B7892C93A089B1898C9180648C93938D1C
:10024000848D981306C00288F389E02D80818F7D0C
:1002500080830895EF92FF920F931F93CF93DF93C4
:10026000EC0181E0888F9B8D8C8D981305C0E88907
:10027000F989808185FD24C0F62E0B8D10E00F5F7B
:100280001F4F0F731127E02E8C8DE8120CC00FB694
:1002900007FCFACFE889F989808185FFF5CFCE0187
:1002A0000E940901F1CF8B8DFE01E80FF11DE35A89
:1002B000FF4FF0820B8FEA89FB898081806207C043
:1002C000EE89FF896083E889F98980818064808371
:1002D00081E090E0DF91CF911F910F91FF90EF901F
:1002E0000895CF93DF93EC01888D8823C9F0EA89C4
:1002F000FB89808185FD05C0A889B9898C9186FD1F
:100300000FC00FB607FCF5CF808185FFF2CFA8891B
:10031000B9898C9185FFEDCFCE010E940901E7CF0D
:10032000DF91CF91089580E090E0892B29F00E9421
:10033000FF0081110C940000089590E0FC01E85941
:10034000FF4F3491FC01EC55FF4F2491FC01E05725
:10035000FF4FE491EE2309F43BC0332339F13330EE
:1003600091F038F43130A9F0323001F584B58F7D49
:1003700012C0373091F03830A1F03430B9F48091A8
:1003800080008F7D03C0809180008F7780938000F4
:100390000DC084B58F7784BD09C08091B0008F7780
:1003A00003C08091B0008F7D8093B000F0E0EE0F2D
:1003B000FF1FE458FF4FA591B4918FB7F894EC91CB
:1003C000611103C020952E2301C02E2B2C938FBFCB
:1003D00008953FB7F8948091050290910602A0918C
:1003E0000702B091080226B5A89B05C02F3F19F05F
:1003F0000196A11DB11D3FBFBA2FA92F982F8827A5
:10040000820F911DA11DB11DBC01CD0142E0660FFF
:10041000771F881F991F4A95D1F708958F929F9251
:10042000AF92BF92CF92DF92EF92FF926B017C016D
:100430000E94E9014B015C01C114D104E104F10403
:10044000F1F00E94E901DC01CB0188199909AA09A0
:10045000BB09883E9340A105B10570F321E0C21AA3
:10046000D108E108F10888EE880E83E0981EA11CEF
:10047000B11CC114D104E104F10419F7DDCFFF90E0
:10048000EF90DF90CF90BF90AF909F908F900895A6
:10049000CF93DF93EC0160E08E810E949D0161E0CB
:1004A0008E810E949D0160E08E810E949D018BE8FB
:1004B00091E00197F1F7DF91CF910895CF92DF920C
:1004C000EF92FF920F931F93CF93DF937C016C0108
:1004D00087E0C80ED11CC0E0D0E0062F10E0B801C4
:1004E0000C2E02C0759567950A94E2F76170F601CB
:1004F00081916F010E949D012196C430D10579F749
:10050000C701DF91CF911F910F91FF90EF90DF9086
:10051000CF900C944802CF92DF92EF92FF920F930C
:100520001F93CF93DF93EC01F62E642F8C810E94F2
:100530009D018D818F3F19F060E00E949D018F85A4
:100540000F2D10E084FF25C06E0187E0C80ED11C7E
:10055000E12CF12CB8010E2C02C0759567950A9418
:10056000E2F76170F60181916F010E949D01FFEF3A
:10057000EF1AFF0A88E0E816F10461F7CE01DF9177
:10058000CF911F910F91FF90EF90DF90CF900C943F
:100590004802B80184E0759567958A95E1F7CE0128
:1005A0000E945E026F2DCE01DF91CF911F910F91BE
:1005B000FF90EF90DF90CF900C945E0241E00E949C
:1005C0008B0281E090E0089540E00C948B0261E0A2
:1005D0000E94E4028BE39FE10197F1F70895EF9207
:1005E000FF920F931F93CF93DF93EC01623018F0CB
:1005F0008F8588608F876B8B1C8A80E48D8B80E170
:100600008E8B80E58F8B8C810E9487008D818F3F40
:1006100011F00E9487008E810E9487007E0187E092
:10062000E80EF11C00E010E08F8584FD03C084E03B
:1006300090E002C088E090E00817190744F4F70141
:1006400081917F010E9487000F5F1F4FEDCF8BE3E9
:100650009DE00197F1F760E08C810E949D0160E0D0
:100660008E810E949D018D818F3F19F060E00E9474
:100670009D016F8564FD1DC063E0CE010E945E0296
:100680000BE416E4C8010197F1F763E0CE010E9484
:100690005E02C8010197F1F763E0CE010E945E029D
:1006A00083E592E00197F1F762E0CE010E945E02DD
:1006B00016C06062CE010E94E4028BE496E40197CA
:1006C000F1F76F856062CE010E94E40283E592E05B
:1006D0000197F1F76F856062CE010E94E4026F8599
:1006E0006062CE010E94E40284E0888B6CE0CE015F
:1006F0000E94E402CE010E94E70282E0898B66E05C
:10070000CE01DF91CF911F910F91FF90EF900C944C
:10071000E4020E942E066115710579F0FB0101903B
:100720000020E9F73197AF01461B570BDC01ED9133
:10073000FC910280F381E02D099480E090E008951F
:100740000F931F93CF93DF93EC010E948B038C01D7
:100750006BEE71E0CE010E948B03800F911FDF9141
:10076000CF911F910F9108951F920F920FB60F9284
:1007700011242F933F934F935F936F937F938F93A6
:100780009F93AF93BF93EF93FF9387E192E00E9413
:100790000901FF91EF91BF91AF919F918F917F914F
:1007A0006F915F914F913F912F910F900FBE0F90DE
:1007B0001F9018951F920F920FB60F9211242F932E
:1007C0008F939F93EF93FF93E0912702F09128027C
:1007D0008081E0912D02F0912E0282FD12C0908165
:1007E000809130028F5F8F7320913102821751F018
:1007F000E0913002F0E0E95EFD4F958F809330028A
:1008000001C08081FF91EF919F918F912F910F9067
:100810000FBE0F901F9018951F920F920FB60F9258
:1008200011242F933F938F939F93AF93BF93809106
:10083000010290910202A0910302B0910402309152
:10084000000223E0230F2D3720F40196A11DB11DD6
:1008500005C026E8230F0296A11DB11D20930002BA
:100860008093010290930202A0930302B0930402CA
:100870008091050290910602A0910702B0910802B2
:100880000196A11DB11D8093050290930602A093CD
:100890000702B0930802BF91AF919F918F913F9152
:1008A0002F910F900FBE0F901F901895E7E1F2E087
:1008B0001382128288EE93E0A0E0B0E084839583F7
:1008C000A683B78384E391E09183808385EC90E0F5
:1008D0009587848784EC90E09787868780EC90E00A
:1008E000918B808B81EC90E0938B828B82EC90E0FB
:1008F000958B848B86EC90E0978B868B118E128E75
:10090000138E148EE4EBF2E01382128284E491E001
:100910009183808382E084838FEF858383E0868365
:1009200084E0878385E0808786E0818787E082870F
:100930001386148615861686178661E0CF010C94FF
:10094000EF02789484B5826084BD84B5816084BDF3
:1009500085B5826085BD85B5816085BD80916E005D
:10096000816080936E00109281008091810082608E
:1009700080938100809181008160809381008091CB
:1009800080008160809380008091B10084608093BA
:10099000B1008091B00081608093B00080917A00B6
:1009A000846080937A0080917A00826080937A00DC
:1009B00080917A00816080937A0080917A008068CB
:1009C00080937A001092C10062E084EB92E00E9472
:1009D000EF02E0912702F091280282E08083E0910B
:1009E0002302F09124021082E0912502F091260268
:1009F0008FEC808310922F02E0912B02F0912C0259
:100A000086E08083E0912902F0912A028081806152
:100A10008083E0912902F0912A028081886080839E
:100A2000E0912902F0912A02808180688083E09120
:100A30002902F0912A0280818F7D808368E471E031
:100A400084EB92E00E94A003E091C702E23010F430
:100A5000E15001C0E1E0F0E0EC54FD4F64896068D2
:100A600084EB92E00E94E40269E571E084EB92E09D
:100A70000E94A00360ED77E080E090E00E940E020B
:100A800084EB92E00E94E7026AE671E084EB92E078
:100A90000E94A00387E192E00E94F3001816190655
:100AA0000CF0D3C0C0911502D09116028E010F5FD9
:100AB0001F4F109316020093150287E192E00E94E7
:100AC000D100C75FDD4F88830C30110509F0BDC030
:100AD00084EB92E00E94E702C9E0D2E0699187E1ED
:100AE00092E00E942A0182E0C531D807B9F760ED93
:100AF00077E080E090E00E940E0220E031E0C0E06C
:100B0000D0E0E9E0F2E080E090E05191D901A80F57
:100B1000B91F4C91541305C001968C309105A9F76B
:100B200008C02196245F3F4FC430D10551F7C9E07A
:100B3000D0E0D0931602C093150284EB92E00E949D
:100B4000E702C930D10509F44EC084EB92E00E945F
:100B5000E702E1E08091C7028111E0E0E195F0E079
:100B6000EC54FD4F6489606884EB92E00E94E402DB
:100B70006AE771E084EB92E00E94A00364EF71E009
:100B800080E090E00E940E02E091C702E23010F493
:100B9000E15001C0E1E0F0E0EC54FD4F6489606891
:100BA00084EB92E00E94E402C130D10561F040F094
:100BB000C230D10559F0239779F467EB71E008C092
:100BC0006BE871E005C06DE971E002C067EA71E0B1
:100BD00084EB92E00E94A00368EE73E080E090E076
:100BE0000E940E0212C06CEC71E084EB92E00E9455
:100BF000A00364EF71E080E090E00E940E026BEDD4
:100C000071E087E192E00E94A00368EE73E080E06B
:100C100090E00E940E0284EB92E00E94E7026AE6F6
:100C200071E084EB92E00E94A00364EF71E080E049
:100C300090E00E940E026EEE71E087E192E00E9469
:100C4000A00310921602109215020E94930122CF67
:100C5000EE0FFF1F0590F491E02D099481E090E0E4
:0A0C6000F8940C943306F894FFCFCB
:100C6A003139303034443631374334393139303020
:100C7A0034414646413330463030303038334136DD
:100C8A0042303935303030303833434236363245E7
:100C9A00000000002A01A600F300D100E50071015E
:100CAA0000000000DE02A6005F5F415454454E4436
:100CBA00414E43455F5F202000204D41524B494E33
:100CCA00472053595354454D2000504C4143452029
:100CDA00594F5552204341524400415554484F52AE
:100CEA0049534544205553455220004D6164687567
:100CFA002043686175646872792020200054616E0F
:100D0A00756A6120202000446F6C6C7920536861F9
:100D1A00726D61202020004D722E2056696B61731E
:100D2A00682053696E646875202020004E4F542055
:100D3A00415554484F5249534544000D0A4E4F54A9
:100D4A0020415554484F52495345440D0A00504CCE
:100D5A0041434520594F555220434152440D0A0000
:00000001FF
